:100000000C9442060C946A060C946A060C946A06D8
:100010000C946A060C946A060C946A060C946A06A0
:100020000C946A060C946A060C946A060C946A0690
:100030000C946A060C946A060C946A060C946A0680
:100040000C94100F0C946A060C94800F0C945A0FA9
:100050000C946A060C946A060C946A060C946A0660
:100060000C94E70C0C946A06DB40A4A62EAF20008B
:10007000A1C8D300408DAED580A80000600000006C
:100080000000000000000000000000E00000000090
:1000900000000000000000000001E000000000007F
:1000A000000000000000000001F00000000000005F
:1000B0000000000000000003F0000000000000004D
:1000C00000000000000007F0000000000000000039
:1000D000000000000007F800000000000000000021
:1000E000000000000FF800000003C0007E000001C7
:1000F000E0007F0FF800000003C000FE000001E0F8
:1001000000FFEFF800000003C000FE000001E00067
:10011000FFFFF800000003C000F00000000F007FA8
:10012000FE7FC0000003C000F00000000F003FFE93
:100130007FF83FF1FBCFFCFEF3BC3DEFE01FFE7FFD
:10014000FF7FFBFFDFFEFEFFBC3DEFE01FC6FFFFB2
:100150007FFBFFDFFEFEFFBC3DEFE00FE3C7FE7855
:100160007BC3DE1EF0FFBC3DEF0007FF87FC787B02
:10017000C3DE1EF0F83C3DEF0001FFFFF0007BC343
:10018000C01EF0F03C3DEF0001F37FE03FFBC3CF2A
:10019000FEF0F03C3DEF0003E33F807FFBC3DFFE5A
:1001A000F0F03C3DEF0007E73C00787BC3DE1EF03B
:1001B000F03C3DEF0007FFBE00787BC3DE1EF0F091
:1001C0003C3DEF0007FFFE00787BC3DE1EF0F03CF5
:1001D0003DEF000FFFFE007FFBFFDFFEF0F03FFD75
:1001E000EFE00FFFFF007FFBFFDFFEF0F03FFDEFD2
:1001F000E00FF9FF003E79F9CF9EF0F01F3DE7E0F8
:100200001FF1FF0000000000000000000000001FC0
:1002100080FF007FFFFFFFFFFFFFFFFFFFE01C00ED
:100220007F007FFFFFFFFEB46D888D18E000001F88
:10023000007FFFFFFFFE95AD7DB577E000000F006A
:100240007FFFFFFFFEA5AD9D8D19E0000006007F3A
:10025000FFFFFFFEB5ADEDB57EE000000000000140
:10026000800000000000000000000380000000008B
:10027000000000000007C0000000000000000000B7
:1002800007C00000000000000000000FC0000000D8
:100290000000000000001FE000000000000000005F
:1002A000001FE00000000000000000003FE0000030
:1002B000000000000000003FF0000000000000000F
:1002C00000007FF0000000000000001FF87FF00039
:1002D0000000000000003FFE7FF000000000000072
:1002E000003FFF7FF0000000000000001FFFFBE068
:1002F000000000000000000FFFF9FFC00000000038
:1003000000000FFFF9FFF800000000000007FFF1F8
:10031000FFFF00000000000003FC73FFFF800000EF
:1003200000000001FE3FFFFF80000000000000FF12
:100330001E0FFF000000000000007FFE1FFC0000F9
:1003400000000000003FFFFFF80000000000000078
:100350000FDFFFE0000000000000001F19FFC000D9
:100360000000000000003F3CFF0000000000000013
:10037000007E7CF800000000000000007FFE7C0092
:1003800000000000000000FFFFFC00000000000073
:100390000000FFFFFE0000000000000000FFFFFE65
:1003A0000000000000000001FFEFFE000000000060
:1003B000000001FFCFFE0000000000000003FF0767
:1003C000FE0000000000000003FC07FE000000002B
:1003D00000000003F003FE000000000000000180A8
:1003E00000FE000000000000000000007E00000091
:1003F000000000000000003E0000000000000000BF
:1004000000000C000000000000078000FC0000035A
:10041000C0000000078001FC000003C000000007CE
:100420008001FC000003C0000000078001E0000024
:10043000001E000000078001E00000001E007FE3B6
:10044000F79FF9FDE7787BDFC0FFF7FFBFFDFDFFFA
:10045000787BDFC0FFF7FFBFFDFDFF787BDFC0F0DB
:10046000F787BC3DE1FF787BDE00F0F787BC3DE11C
:10047000F0787BDE0000F787803DE1E0787BDE00EE
:100480007FF7879FFDE1E0787BDE00FFF787BFFD08
:10049000E1E0787BDE00F0F787BC3DE1E0787BDED1
:1004A00000F0F787BC3DE1E0787BDE00F0F787BC29
:1004B0003DE1E0787BDE00FFF7FFBFFDE1E07FFB81
:1004C000DFC0FFF7FFBFFDE1E07FFBDFC07CF3F3A0
:1004D0009F3DE1E03E7BCFC0000000000000000037
:1004E000000000FFFFFFFFFFFFFFFFFFFFC0FFFF58
:1004F000FFFFFD68DB111A31C0FFFFFFFFFD2B5A24
:10050000FB6AEFC0FFFFFFFFFD4B5B3B1A33C0FFF1
:10051000FFFFFFFD6B5BDB6AFDC02200FF2100FFD8
:10052000FFFFFFFFFFFFDFFFFFFFFFFFFFFFFFFFFB
:10053000FFFFFFFFFFFF8FFFFFFFFFFFFFFFFFFF3B
:10054000FFFFFFFFFFFE0FFFFFFFFFFFFFFFFFFFAC
:10055000FFFFFFFFFFFE87FFFFFFFFFFFFFFFFFF24
:10056000FFFFFFFFFFFF07FFFFFFFFFFFFFFFFFF93
:10057000FFFFFFFFFFFF07FFFFFFFFFFFFFFFFFF83
:10058000FFFFFFFFFFFD07FFFFFFFFFFFFFFFFFF75
:10059000FFFFFFFFFFFD03FFFFFFFFFFFFFFFFFF69
:1005A000FFFFFFF03FFD03FFFFFC1FFFFFFFFFFF0B
:1005B000FE0000783FFD03FFFFFC1FFFFFFFFFFF72
:1005C000FE1C1C783FFC03FFFFFC1FFFFFFFFFFF2B
:1005D000FE3C1E783FFE03FFFFFC1FFFFFFFFFFFF7
:1005E000FE7C1E783FFE03FFFFFC1FFFFFFFFFFFA7
:1005F000FE7C1F783FFE03FFFFFC1FFFFFFFFFFF96
:10060000FEFC1F783FFE03FFFFFC1FFFFFFFFFFF05
:10061000FEFC1FF8207F03E0007C1E0E003FFFFF62
:10062000FFFC1FF8383F03F0707C1E3E707FFFFF19
:10063000FFFC1FF83C3F03F0787C1C7EF07FFFFF3F
:10064000FFFC1FF83C3F03F0787C1CFFE0FFFFFF3E
:10065000FFFC1FF83C3F07F0787C1CFFE0FFFFFF2A
:10066000FFFC1FF83C3F07F0787C18FFE1FFFFFF1D
:10067000FFFC1FF83C3F07F0787C107FC1FFFFFFB5
:10068000FFFC1FF83C3F07F0787C107FC1FFFFFFA5
:10069000FFFC1FF83C3F07F0787C183F83FFFFFF0B
:1006A000FFFC1FF83C3F07F0787C183F83BFFFFF3B
:1006B000FFFC1FF83C3F8FF0787C181F07BFFFFF3F
:1006C000FFFC1FF83C3F8FF0787C1C1F07BFFFFF2B
:1006D000FFFC1FF83C3FCFF0787C1C0F0FBFFFFFE3
:1006E000FFF81FF8381FCFF0707C1E0E0F3FFFFF82
:1006F000FFF007E0100FDFC020180C06003FFFFFDF
:10070000FFFFFFFFFFFFFFFFFFFFFFFFFFFFFFFFF9
:10071000FFFFFFFFFFFFFFFFFFFFFFFFFFFFFF00E8
:10072000000000240027002A000000000025002807
:10073000002B000404040404040404020202020264
:100740000203030303030301020408102040800195
:100750000204081020010204081020000000080014
:100760000201000003040700000000000000000078
:100770000103070F1F3F7F0080C0E0F0F8FCFE0080
:10078000000000003E5B4F5B3E3E6B4F6B3E1C3EED
:100790007C3E1C183C7E3C181C577D571C1C5E7F01
:1007A0005E1C00183C1800FFE7C3E7FF0018241880
:1007B00000FFE7DBE7FF30483A060E2629792926B5
:1007C000407F050507407F05253F5A3CE73C5A7F9F
:1007D0003E1C1C08081C1C3E7F14227F22145F5FF5
:1007E000005F5F06097F017F006689956A6060602F
:1007F000606094A2FFA29408047E040810207E206A
:100800001008082A1C08081C2A08081E10101010BE
:100810000C1E0C1E0C30383E3830060E3E0E060004
:100820000000000000005F00000007000700147FC8
:10083000147F14242A7F2A1223130864623649562F
:1008400020500008070300001C2241000041221C28
:10085000002A1C7F1C2A08083E080800807030000F
:100860000808080808000060600020100804023E24
:100870005149453E00427F40007249494946214165
:10088000494D331814127F1027454545393C4A49D4
:100890004931412111090736494949364649492913
:1008A0001E00001400000040340000000814224123
:1008B0001414141414004122140802015909063EAC
:1008C000415D594E7C1211127C7F494949363E41A7
:1008D0004141227F4141413E7F494949417F0909C8
:1008E00009013E414151737F0808087F00417F4163
:1008F000002040413F017F081422417F404040409A
:100900007F021C027F7F0408107F3E4141413E7FF1
:10091000090909063E4151215E7F091929462649E8
:1009200049493203017F01033F4040403F1F2040BF
:10093000201F3F4038403F631408146303047804C9
:10094000036159494D43007F414141020408102091
:10095000004141417F040201020440404040400008
:100960000307080020545478407F28444438384412
:10097000444428384444287F385454541800087E8E
:10098000090218A4A49C787F0804047800447D40E0
:10099000002040403D007F1028440000417F40007F
:1009A0007C047804787C080404783844444438FC97
:1009B0001824241818242418FC7C0804040848541B
:1009C00054542404043F44243C4040207C1C2040D8
:1009D000201C3C4030403C44281028444C909090CF
:1009E0007C4464544C440008364100000077000009
:1009F000004136080002010204023C2623263C1E68
:100A0000A1A161123A4040207A38545455592155D9
:100A100055794122545478422155547840205455F8
:100A200079400C1E52721239555555593954545447
:100A30005939555454580000457C410002457D42C7
:100A40000001457C407D1211127DF0282528F07CA4
:100A5000545545002054547C547C0A097F4932493E
:100A60004949323A4444443A324A4848303A41418A
:100A7000217A3A42402078009DA0A07D3D4242422A
:100A80003D3D4040403D3C24FF2424487E49436690
:100A90002B2FFC2F2BFF0929F620C0887E0903206D
:100AA000545479410000447D413048484A3238402E
:100AB00040227A007A0A0A727D0D19317D26292991
:100AC0002F28262929292630484D40203808080893
:100AD0000808080808382F10C8ACBA2F102834FAB4
:100AE00000007B000008142A142222142A1408553E
:100AF00000550055AA55AA55AAFF55FF55FF0000FD
:100B000000FF00101010FF00141414FF001010FF5D
:100B100000FF1010F010F0141414FC001414F7006F
:100B2000FF0000FF00FF1414F404FC141417101F3E
:100B300010101F101F1414141F00101010F00000CC
:100B400000001F101010101F10101010F0100000E7
:100B500000FF101010101010101010FF10000000F7
:100B6000FF140000FF00FF00001F10170000FC042E
:100B7000F414141710171414F404F40000FF00F711
:100B800014141414141414F700F714141417141074
:100B9000101F101F141414F4141010F010F00000A3
:100BA0001F101F0000001F14000000FC140000F0C4
:100BB00010F01010FF10FF141414FF141010101F69
:100BC00000000000F010FFFFFFFFFFF0F0F0F0F07A
:100BD000FFFFFF0000000000FFFF0F0F0F0F0F3897
:100BE00044443844FC4A4A4A347E02020606027EE5
:100BF000027E0263554941633844443C04407E20F0
:100C00001E2006027E020299A5E7A5991C2A492A00
:100C10001C4C7201724C304A4D4D3030487848308F
:100C2000BC625A463D3E494949007E0101017E2A87
:100C30002A2A2A2A44445F444440514A44404044BA
:100C40004A51400000FF0103E080FF000008086BEC
:100C50006B083612362436060F090F0600001818E6
:100C60000000001010003040FF0101001F01011EB4
:100C700000191D1712003C3C3C3C00000000000025
:100C8000D5197F1511241FBECFEFD8E0DEBFCDBF31
:100C900011E0A0E0B1E0E6E7F7E302C005900D92B5
:100CA000A635B107D9F723E0A6E5B1E001C01D9252
:100CB000A230B207E1F716E0C1E4D6E004C0219704
:100CC000FE010E947B1AC034D107C9F70E948E151D
:100CD0000C94AE1B0C940000FC01918D228D892F89
:100CE00090E0805C9F4F821B91098F739927089534
:100CF00080E090E0892B29F00E94720E81110C9403
:100D000000000895FC0177FDB9C0808591856817C2
:100D100079070CF0B3C057FDB1C0828593854817A1
:100D200059070CF008958689823079F48481958181
:100D3000DC01A61BB70BBD0161507109868197814B
:100D4000DC01A41BB50BAD010EC0833009F084C0DB
:100D500064277527CA018627972768277927468140
:100D60005781481B590B415051092130310531F051
:100D700048F12230310509F44AC00895CA0157FDEF
:100D800007969C01A3E035952795AA95E1F7A481E4
:100D9000B5812A9FC0012B9F900D3A9F900D112481
:100DA000680F791F078CF0A1E02DE60FF71F477041
:100DB000552781E090E001C0880F4A95EAF79081BD
:100DC000892B48C0CA0157FD07969C0193E03595D1
:100DD00027959A95E1F7A481B5812A9FC0012B9FA1
:100DE000900D3A9F900D1124680F791F078CF0A188
:100DF000E02DE60FF71F4770552781E090E001C016
:100E0000880F4A95EAF780959081892323C0CA010B
:100E100057FD07969C0183E0359527958A95E1F764
:100E2000A481B5812A9FC0012B9F900D3A9F900D00
:100E30001124680F791F078CF0A1E02DE60FF71F32
:100E40004770552781E090E001C0880F4A95EAF786
:100E50009081892780830895813009F086CF6427A7
:100E60007527462757276427752784819581DC01DC
:100E7000A61BB70BBD016150710977CF0895089586
:100E8000FC016370668B8481958126813781613096
:100E900039F0633029F0918780873387228708955E
:100EA000318720879387828708956F927F928F92F0
:100EB0009F92AF92BF92CF92DF92EF92FF920F93E9
:100EC0001F93CF93DF93EC014B015A016901380165
:100ED000E881F9810284F385E02D0995E881F981A3
:100EE0000288F389E02D87019601A501B401CE01A6
:100EF0000995A501460D571D41505109E881F98119
:100F00000288F389E02D9601B401CE010995E881AC
:100F1000F9810088F189E02D9301A501B401CE018A
:100F20000995C80CD91CB60161507109E881F98195
:100F30000088F189E02D9301A501CE010995E88192
:100F4000F9810688F789E02DCE01DF91CF911F91BD
:100F50000F91FF90EF90DF90CF90BF90AF909F9058
:100F60008F907F906F9009948F929F92AF92BF92D3
:100F7000CF92DF92EF92FF920F931F93CF93DF9365
:100F80004C016B015A01E901DC01ED91FC91621702
:100F9000730781F40417150724F48B2D5801042FCF
:100FA000182F0A191B0998012F5F3F4F048CF58DEC
:100FB000E02D12C04017510709F52617370724F412
:100FC0008D2D6901C62FD82F9E012C193D092F5F49
:100FD0003F4F068CF78DE02D8701A501B601C401B6
:100FE0000995DF91CF911F910F91FF90EF90DF90C6
:100FF000CF90BF90AF909F908F9008950284F3851B
:10100000E02D0995D401ED91FC910488F589E02D3E
:101010009E01A501B601C4010995D401ED91FC9191
:101020000688F789E02DC401DF91CF911F910F91C0
:10103000FF90EF90DF90CF90BF90AF909F908F90F8
:101040000994EF92FF920F931F93DC011A960D9172
:101050001C911B9718962D913C911997ED91FC913D
:1010600000A0F1A1E02D7B0140E050E060E070E0E5
:1010700009951F910F91FF90EF9008954F925F9205
:101080006F927F928F929F92AF92BF92CF92DF9298
:10109000EF92FF920F931F93CF93DF936C012B017D
:1010A0005A0139014801DC01ED91FC910284F3857C
:1010B000E02D0995E201640C751CD601ED91FC91BF
:1010C000C615D7055CF40088F189E02D87019401ED
:1010D000A501BE01C60109952196EFCF0688F789C3
:1010E000E02DC601DF91CF911F910F91FF90EF90FE
:1010F000DF90CF90BF90AF909F908F907F906F9038
:101100005F904F9009948F929F92AF92BF92CF922F
:10111000DF92EF92FF920F931F93CF93DF93EC0137
:101120005B014A016901E881F9810284F385E02DC0
:10113000099595012C0D3D1D21503109E881F9815A
:101140000488F589E02D78018401A401B501CE0160
:101150000995E881F9810688F789E02DCE01DF91B4
:10116000CF911F910F91FF90EF90DF90CF90BF90A4
:10117000AF909F908F9009948F929F92AF92BF9261
:10118000CF92DF92EF92FF920F931F93CF93DF9353
:10119000EC015B014A0169017801E881F98102846F
:1011A000F385E02D0995C80CD91C86010150110961
:1011B000E881F9810488F589E02D9501A401B50144
:1011C000CE010995E881F9810688F789E02DCE01E5
:1011D000DF91CF911F910F91FF90EF90DF90CF9013
:1011E000BF90AF909F908F9009940895EF92FF92D7
:1011F0000F931F93DC01ED91FC9100A0F1A1E02D74
:1012000009951F910F91FF90EF9008950F931F93F1
:10121000DC01ED91FC91068CF78DE02D09951F9175
:101220000F9108950F931F93DC01ED91FC91048CB5
:10123000F58DE02D09951F910F910895DC01ED9139
:10124000FC910084F185E02D09942F923F924F92FA
:101250005F926F927F928F929F92AF92BF92CF9246
:10126000DF92EF92FF920F931F93CF93DF9300D003
:1012700000D000D0CDB7DEB72C017E836D836A012C
:101280005901C801FC82EB824801841A950A97FE35
:1012900003C091948194910835012D813E81621A99
:1012A000730A77FE03C0719461947108681479041D
:1012B0005CF43A2D2B2D5C01832F922F3D812E81E2
:1012C000DE82CD82C32ED22EAD81BE81AA16BB0690
:1012D0005CF43C2D2D2D6C01832F922F3D812E81AE
:1012E000BE82AD82A32EB22E85012D813E81021BCE
:1012F000130B1C012C183D0837FE03C031942194B8
:101300003108780117FF03C03FEFE31AF30AF594A1
:10131000E794C816D9062CF08FEF9FEF9A83898344
:1013200004C0A1E0B0E0BA83A9832D813E81A2165A
:10133000B30624F1D201ED91FC910484F585E02DF2
:101340002B813C816814790424F44D815E81B601BF
:1013500003C0A6016D817E81C2010995E218F308E0
:10136000F7FE06C029813A81C20ED31EE00EF11E9F
:101370008D819E8101969E838D83D7CF26960FB651
:10138000F894DEBF0FBECDBFDF91CF911F910F91BB
:10139000FF90EF90DF90CF90BF90AF909F908F9095
:1013A0007F906F905F904F903F902F90089585EDC4
:1013B0008093BC008091BC0084FDFCCF1092F001B2
:1013C000089540919601262F30E0240F311D2132DF
:1013D0003105DCF42091F0012430C9F4FC0180E0F7
:1013E00090E0861758F4309196012191DC01AA58BB
:1013F000BE4FA30FB11D2C930196F3CF80919601A0
:10140000680F6093960180E0089581E0089582E07E
:10141000089508950895E091BE018091BD01E817F7
:1014200030F4F0E0EA5AFE4F808190E008958FEFAB
:101430009FEF08959091BE018091BD01981750F4DF
:10144000E92FF0E0EA5AFE4F208130E09F5F909351
:10145000BE0102C02FEF3FEFC90108958091BD0189
:1014600090E02091BE01821B91090895CF92DF92F6
:10147000EF92FF920F931F93CF93DF937C01CB01E9
:101480008A012091F101222389F0EB016B01C40E46
:10149000D51ECC15DD0569F06991D701ED91FC9160
:1014A0000190F081E02DC7010995F3CF642F0E94D0
:1014B000E109C801DF91CF911F910F91FF90EF904B
:1014C000DF90CF900895CF93DF931F92CDB7DEB713
:1014D00069832091F1012223D1F02091140220325E
:1014E00040F021E030E0FC013383228380E090E093
:1014F00015C08091F201E82FF0E0ED50FE4F998188
:1015000090838F5F8093F2018093140205C061E0A5
:10151000CE0101960E94E10981E090E00F90DF91F9
:10152000CF910895089580E090E008950F931F9360
:10153000CF93DF93DC015696EC915697E23071F031
:10154000E330E9F0E13079F5FB0114960D90BC91A0
:10155000A02DA41BB50BA21BB30B18C0EC01EC8192
:10156000FD81E61BF70BBF0161507109EE81FF8120
:10157000DF01A41BB50BAD01421B530B14C0DA01F4
:10158000EC01EE81FF81E61BF70B3197F7FD0DC0F3
:10159000EC014E815F81E417F5073CF4AF01BD011A
:1015A0000E94A01302C00E940714DF91CF911F91E7
:1015B0000F9108950F931F93DC015696EC91569767
:1015C000E23061F0E33009F1E13081F51496ED91FC
:1015D000FC911597E41BF50B319723C0DC011496A1
:1015E000ED91FC911597DF01A61BB70BBD01DC0146
:1015F0001696ED91FC911797DF01A41BB50BAD0179
:1016000041505109621B730B11C0FA01DC0116969F
:101610004D915C911797DA01A61BB70BBD01621BB8
:10162000730BAB01BF010E9407140CC057FD0AC029
:10163000DC011696ED91FC9117974E175F0714F495
:101640000E94A0131F910F9108958F929F92AF92C5
:10165000CF92EF92FF920F931F93CF93DF93EC0102
:10166000262F898D9A8D009709F042C06A3059F46F
:101670001D861C862D898E859F8538E0239F800DD1
:10168000911D112443C06D3009F4AAC08F898823AD
:10169000C9F03C898C859D8546E0349F800D911D65
:1016A0001124488559854817590764F41D861C86FE
:1016B0003D898E859F8548E0349F800D911D1124C2
:1016C0009F878E87EA88FB88088919894E855F8500
:1016D0006C857D85AD88CC88CE010E946C112C89EB
:1016E0008C859D8536E0239F800D911D11243EC081
:1016F0006A3079F41D861C862D89FC013696E491AA
:101700008E859F852E9F800D911D11249F878E872A
:1017100067C06D3009F464C0FC01349634916317DE
:1017200008F45EC03196E491E61708F459C0462FDC
:10173000431B342FFC0132968590949047E0349FF0
:10174000800C911C1124F401329634913196E4916D
:10175000332311F0E1110DC0F4013496E4912C898A
:101760008C859D85E29F800D911D11249D878C871E
:1017700037C0F401359644915F89552319F15C898E
:10178000E32FF0E0E40FF11D47FDFA955E9FB001F5
:101790005F9F700D11244C855D85460F571F68852E
:1017A00079856417750774F41D861C863D89FC01D4
:1017B0003696E4918E859F853E9F800D911D112464
:1017C0009F878E87EA88FB88088919894E855F85FF
:1017D0006C857D85AD88CC88CE010E946C11BCCF14
:1017E00081E090E0DF91CF911F910F91FF90EF90FA
:1017F000CF90AF909F908F900895FC01848DDF0172
:10180000A80FB11DA35ABF4F2C91848D90E0019673
:101810008F739927848FA689B7892C93A089B18962
:101820008C91837080648C93938D848D981306C003
:101830000288F389E02D80818F7D8083089508954B
:101840008EBD00000DB407FEFDCF8EB508951F9329
:10185000CF93DF93FC01858D968D009729F1162F8C
:10186000EF0121A131E03093F10120931302109296
:10187000F20110921402DC01ED91FC910190F081D3
:10188000E02D60E009958D8D9E8DDC01ED91FC9140
:101890000190F081E02D612F09958D8D9E8DDF9156
:1018A000CF911F910C945B10A5A5B6A59C9183A91F
:1018B000809589238C93838D948D892B31F0862F8D
:1018C000DF91CF911F910C94200C28E030E080E84C
:1018D000A1A5B2A591A9462F482319F04C91942BAC
:1018E00003C04C91909594239C93A3A5B4A54C91CF
:1018F00092A9942B9C93A3A5B4A54C9192A99095E1
:1019000094239C9386952150310911F7DF91CF9153
:101910001F9108958CBD9DBD08951F93CF93DF93B4
:10192000EC01162F8D8D9E8D892BB1F02FA938AD2E
:1019300049AD5AAD60E074E284EF90E00E94591A1C
:10194000DA01C9014097A109B109B695A795979504
:1019500087958093B8000FC08B8D9C8D892B21F0CB
:101960008DA99EA90E948A0CEFA5F8A990818CA947
:10197000809589238083111102C066EA01C067EA5D
:10198000CE010E94270C8D8D9E8D892BB1F02BAD41
:101990003CAD4DAD5EAD60E074E284EF90E00E943E
:1019A000591ADA01C9014097A109B109B695A7955D
:1019B000979587958093B80006C0EFA5F8A9908108
:1019C0008CA9892B8083DF91CF911F9108951F925D
:1019D0000F920FB60F9211242F933F934F935F9363
:1019E0006F937F938F939F93AF93BF93EF93FF93E7
:1019F0008091B900887F803609F49CC068F58832F0
:101A000009F45BC090F4803109F454C038F48823A1
:101A100009F4F6C0883009F44DC0F6C0883109F4E5
:101A20004CC0803209F45DC0EFC0803409F468C056
:101A300048F4803309F455C0883309F0E5C0809339
:101A4000EE01D8C0803509F44FC0883509F45DC077
:101A5000883409F0D9C0D6C0883909F4C7C0A8F4C1
:101A6000883709F467C038F4883609F463C08037D2
:101A700009F460C0C9C0883809F4B8C0803909F4D5
:101A80005FC0803809F0C0C05BC0803B09F486C0ED
:101A900038F4803A09F466C0883A09F47FC0B4C0CB
:101AA000803C09F4A7C0883C09F4A4C0883B09F431
:101AB0008AC0AAC08091CB0110C09091ED018091A5
:101AC000EC01981770F5E091ED0181E08E0F8093A5
:101AD000ED01F0E0E453FE4F80818093BB0085EC84
:101AE00086C08093EE018EC0E091ED0181E08E0F03
:101AF0008093ED018091BB00F0E0E453FE4F8083C2
:101B00009091ED018091EC016EC0E091ED0181E0DA
:101B10008E0F8093ED018091BB00F0E0E453FE4F07
:101B200080838091EF0181116DC081E08093CA01B3
:101B300084EA61C083E08093F0011092B801CFCFB6
:101B40008091B801803208F051C0E091B80181E085
:101B50008E0F8093B8018091BB00F0E0E856FE4FF5
:101B60008083BDCF85EC8093BC001092F001809102
:101B7000B801803230F4E091B801F0E0E856FE4F51
:101B800010826091B80170E0E091B901F091BA0162
:101B900088E991E009951092B80136C084E08093FD
:101BA000F0011092970110929601E091BB01F09123
:101BB000BC01099580919601811105C081E0809357
:101BC000960110927601E091970181E08E0F80934B
:101BD0009701F0E0EA58FE4F80818093BB0090911E
:101BE000970180919601981708F479CF85E8809342
:101BF000BC000AC085EC8093BC001092F00104C0C8
:101C00001092EE010E94D709FF91EF91BF91AF9121
:101C10009F918F917F916F915F914F913F912F9104
:101C20000F900FBE0F901F901895CF92DF92EF92FA
:101C3000FF920F931F93CF93DF936C017A018B0177
:101C4000C0E0D0E0CE15DF0581F0D8016D918D01A7
:101C5000D601ED91FC910190F081E02DC60109952E
:101C6000892B11F02196EECF7E01C701DF91CF9134
:101C70001F910F91FF90EF90DF90CF900895FC019E
:101C8000538D448D252F30E0842F90E0821B930BE1
:101C9000541710F0CF96089501970895FC01918D87
:101CA000828D981761F0828DDF01A80FB11D5D96BE
:101CB0008C91928D9F5F9F73928F90E008958FEF2C
:101CC0009FEF0895FC01918D828D981731F0828DE0
:101CD000E80FF11D858D90E008958FEF9FEF089537
:101CE0000E94A21B85E192E00E946C0621E0892BF4
:101CF00009F420E0822F0895EF92FF920F931F9333
:101D0000CF93DF93EC0181E0888F9B8D8C8D9813AE
:101D100005C0E889F989808185FD26C0F62E0B8DE6
:101D200010E00F5F1F4F0F731127E02E8C8DE8120C
:101D30000CC00FB607FCFACFE889F989808185FFCE
:101D4000F5CFCE010E94FD0BF1CF8B8DFE01E80F88
:101D5000F11DE35AFF4FF0829FB7F8940B8FEA8989
:101D6000FB89808180620AC09FB7F894EE89FF8961
:101D70006083E889F98980818370806480839FBF54
:101D800081E090E0DF91CF911F910F91FF90EF9054
:101D90000895CF93DF93EC01888D8823C9F0EA89F9
:101DA000FB89808185FD05C0A889B9898C9186FD54
:101DB0000FC00FB607FCF5CF808185FFF2CFA88951
:101DC000B9898C9185FFEDCFCE010E94FD0BE7CF45
:101DD000DF91CF9108953FB7F8948091C60190911B
:101DE000C701A091C801B091C90126B5A89B05C043
:101DF0002F3F19F00196A11DB11D3FBFBA2FA92F8A
:101E0000982F8827820F911DA11DB11DBC01CD0106
:101E100042E0660F771F881F991F4A95D1F70895F2
:101E20001F920F920FB60F9211242F933F938F930F
:101E30009F93AF93BF938091C2019091C301A091F2
:101E4000C401B091C5013091C10123E0230F2D37AA
:101E500020F40196A11DB11D05C026E8230F0296AE
:101E6000A11DB11D2093C1018093C2019093C301B4
:101E7000A093C401B093C5018091C6019091C701A0
:101E8000A091C801B091C9010196A11DB11D809317
:101E9000C6019093C701A093C801B093C901BF9137
:101EA000AF919F918F913F912F910F900FBE0F9007
:101EB0001F9018951F920F920FB60F9211242F9317
:101EC0003F934F935F936F937F938F939F93AF93C2
:101ED000BF93EF93FF9385E192E00E94FD0BFF918A
:101EE000EF91BF91AF919F918F917F916F915F9192
:101EF0004F913F912F910F900FBE0F901F9018950B
:101F00001F920F920FB60F9211242F938F939F93CE
:101F1000EF93FF93E0912502F09126028081E091FA
:101F20002B02F0912C0282FD12C0908180912E0232
:101F30008F5F8F7320912F02821751F0E0912E0254
:101F4000F0E0EB5EFD4F958F80932E0201C0808103
:101F5000FF91EF919F918F912F910F900FBE0F9056
:101F60001F9018952091B8023091B902C9010796C7
:101F700097FD079623E0959587952A95E1F720919F
:101F8000B6023091B702829FA001839F500D929FAD
:101F9000500D112460E070E08091D1029091D20246
:101FA0000C94A71B3F924F925F926F927F928F92F9
:101FB0009F92AF92BF92CF92DF92EF92FF920F93D8
:101FC0001F93CF93DF93CDB7DEB728970FB6F89462
:101FD000DEBF0FBECDBF4C017E836D832A01390168
:101FE000C801079697FD07969C0193E035952795C4
:101FF0009A95E1F73C832B83A12CB12CC12CD12CD9
:10200000312CC2018C0D9D1D9A838983CE14DF046F
:10201000D4F518861F822F813885201731075CF58B
:10202000C90187709927892B11F0330C0EC0EF81FD
:10203000F885F7FD379683E0F595E7958A95E1F702
:10204000EA0DFB1DE60DF71D349037FE0DC021E0B3
:1020500030E049815A816D817E818F819885680F3A
:10206000791FC4010E941E092F8138852F5F3F4FC1
:1020700038872F83D0CF3FEFC31AD30A8B819C813F
:10208000A80EB91EBECF28960FB6F894DEBF0FBEBD
:10209000CDBFDF91CF911F910F91FF90EF90DF9017
:1020A000CF90BF90AF909F908F907F906F905F90F8
:1020B0004F903F90089530911402313208F04BC098
:1020C0008091F0018111FCCF9091130222E02093C6
:1020D000F00121E02093EF012FEF2093EE01109209
:1020E000ED013093EC01E3EFF1E0ACECB1E020E086
:1020F000321721F041914D932F5FFACF1092CB010F
:102100002091CB01990F922B9093CB019091CA0112
:10211000913061F41092CA019091CB019093BB0071
:102120009091BC0093FDF8CF95EC01C095EE909393
:10213000BC009091F0019230E1F39091EE019F3F4D
:1021400079F08091EE01803241F08091EE01803390
:1021500031F084E005C081E003C082E001C083E08B
:102160001092F201109214021092F1010895DF9280
:10217000EF92FF920F931F93CF93DF93D82ED92F17
:10218000C62F8091CF029091D002009709F454C0DD
:102190002091D30231E03093F10120931302109289
:1021A000F20110921402DC01ED91FC910190F0819A
:1021B000E02D60E00995ED2CFD2E11E0D1E080913D
:1021C000CF029091D002CC2371F11032C8F00E945E
:1021D0005B108091D302D093F1018093130210928F
:1021E000F201109214028091CF029091D002DC0192
:1021F000ED91FC910190F081E02D60E0099511E0F6
:102200008091CF029091D002F7016491DC01ED91B1
:10221000FC910190F081E02D09951F5FC150BFEF47
:10222000EB1AFB0ACCCFDF91CF911F910F91FF905A
:10223000EF90DF900C945B10E091DF02F091E002F0
:1022400090818091E5028095892380830D2D1D2F3B
:10225000CC2309F439C0F80184912091CD0230914A
:10226000CE02232B31F00E94200CC1500F5F1F4F74
:10227000EFCF28E030E040E8E091DB02F091DC02B3
:102280009091E302582F542319F05081952B03C0ED
:102290005081909595239083E091DD02F091DE02CC
:1022A00050819091E402952B9083E091DD02F091B2
:1022B000DE0250819091E40290959523908346959B
:1022C00021503109C9F6D1CFDF91CF911F910F91E4
:1022D000FF90EF90DF9008952F923F924F925F9280
:1022E0006F927F928F929F92AF92BF92CF92DF9226
:1022F000EF92FF920F931F93CF93DF93CDB7DEB78B
:102300006B970FB6F894DEBF0FBECDBF9B8F8A8F41
:102310001B014A01D22E198708873701A982DC01E7
:1023200059962D913C915A972115310509F0FFC01E
:1023300018968D919C911997681779070CF0E7C151
:102340001A968D919C911B97481759070CF0DFC185
:10235000EC2DF0E0FB83EA839B0146E0C49E200D58
:10236000311D11243D872C87121613060CF0CFC1A6
:102370006A2D70E07B876A8783E0660F771F8A95F6
:10238000E1F77F876E87CB01880D991D1816190616
:102390000CF0BDC158968C91811104C08FEA8D1547
:1023A00008F4D394AA8DBB8DED91FC911197028412
:1023B000F385E02DCD010995B5E0DB9EC001112428
:1023C000EC2DF0E0F98BE88B91012B5F3F4F3B8BBD
:1023D0002A8B3D822C822101AC01421953095D8B6D
:1023E0004C8B7981672F70E07F8B6E8BC4010896D0
:1023F000998F888FEC89FD89E40DF51DE158F84F20
:10240000D49054019F828E82D0FE16C0AA8DBB8DBF
:10241000ED91FC91B1E0CB1209C02981213031F45A
:102420000484F585E02D2885398519C00684F78553
:10243000E02DE884F9841DC0488559854615570567
:1024400019F1AA8DBB8DED91FC91B1E0CB120DC0BD
:102450002981213051F40484F585E02D9301A501F3
:10246000B2018A8D9B8D09950FC00684F785E02DFA
:1024700073010A851B852A813B814E815F816C81B6
:102480007D818A8D9B8D0995D6943FEFA31AB30A5F
:102490004E815F816E897F89460F571F5F834E8310
:1024A000888D998DA816B90609F0AECF9FEF491A0D
:1024B000590AAC81BD81E889F989AE0FBF1FBD8380
:1024C000AC832A893B894216530609F093CF48858D
:1024D00059854615570509F4F8C0AA8DBB8DED91B5
:1024E000FC91B1E0CB1211C02981213071F4B1010E
:1024F0006B5F7F4F0088F189E02D830128E030E099
:10250000A4018A8D9B8D0995E0C06C857D854A81EB
:102510005B81641B750B0684F785E02D73010E85C6
:102520001F859A01A4018A8D9B8D0995CEC0F90162
:102530003496E491DE1AF901329685919491B7E0D0
:10254000DB9E800D911D1124F901259134913B8B67
:102550002A8BFC01259134915901FC01329654904B
:10256000319634913C87329674903196149141E0C3
:102570004C1518F05981523068F0672D072C000C6B
:10258000770B7D836C83812F012E000C990B9B832D
:102590008A8304C01B821A821D821C82AA8DBB8D75
:1025A000ED91FC9111970284F385E02DCD01099501
:1025B000412CD12C612CF981EF2FF0E0FF83EE83C9
:1025C0002C2D30E03B872A87A401410F511D17FDB8
:1025D0005A955F8B4E8BB101670D711D77FC7A9513
:1025E000798F688F7C85671608F06FC0262D30E0E4
:1025F0004A815B81420F531FAE81BF81A49FC001FE
:10260000A59F900DB49F900D1124F401E80FF91FC0
:10261000F98BE88B842D712C4E895F89420F531FF3
:102620005D8B4C8B751408F04DC051E0580F5E87E0
:10263000877041F4C5010196EA89FB89EA0DFB1D0B
:10264000D4905C01D7FE3AC061E0C61216C0798111
:10265000713099F4AA8DBB8DED91FC911197048492
:10266000F585E02D288539854C895D89688D798DC2
:10267000670D711DCD01099521C08C819D81870D4C
:10268000911DEA85FB858E9FB0018F9F700D9E9FE7
:10269000700D1124620D731DAA8DBB8DED91FC91FF
:1026A00011970684F785E02DE884F9840E811F8157
:1026B0002A853B8548895989CD010995DD0C73949C
:1026C0008E85B0CF450C63948DCFAA8DBB8DED91D7
:1026D000FC9111970688F789E02DCD016B960FB616
:1026E000F894DEBF0FBECDBFDF91CF911F910F9148
:1026F000FF90EF90DF90CF90BF90AF909F908F9022
:102700007F906F905F904F903F902F9009946B96C1
:102710000FB6F894DEBF0FBECDBFDF91CF911F91F2
:102720000F91FF90EF90DF90CF90BF90AF909F9070
:102730008F907F906F905F904F903F902F90089573
:102740000F931F93CF93DF9377FF04C0260F371F9C
:1027500060E070E0DC011496CD91DC911597FB01EF
:10276000E20FF31FCE17DF071CF49E01261B370B69
:10277000121613060CF046C0FA0157FD3796DF011A
:10278000E3E0B595A795EA95E1F7AC9FF001AD9F21
:10279000F00DBC9FF00D11246E0F7F1FDC015F96C2
:1027A000ED91FC919097E60FF71F4770552781E058
:1027B00090E001C0880F4A95EAF7482F01301105D3
:1027C00039F078F002301105E9F42E0F3F1F13C0E5
:1027D0002E0F3F1FE217F307A9F08081842B81930E
:1027E000F9CF80952E0F3F1FE217F30759F0908124
:1027F00098239193F9CFE217F30721F08081842782
:102800008193F9CFDF91CF911F910F910895EF92AE
:10281000FF920F931F93CF93DF93EC0177FDA5C039
:10282000EC80FD806E157F050CF09FC057FF04C043
:10283000240F351F40E050E08E819F81FA01E20FA6
:10284000F31F8E179F071CF49C01241B350B1216D7
:1028500013060CF08AC0922F842F86958695869554
:102860008E9DD0018F9DB00D11246A0F7B1FAF8DFF
:10287000B8A1A60FB71F4770B1F188E0841B482F9D
:10288000682F70E0FB01E958F84FE491281798F49D
:10289000621B71092FEF30E002C0359527956A95CC
:1028A000E2F7E2230130110549F078F0023011051A
:1028B00009F05BC00EC00130110519F48C91E82BB2
:1028C0000AC00130110508F049C0E0958C91E82359
:1028D00002C08C91E827EC93941708F446C02C8131
:1028E0003D81A20FB31FE92FE41BE830F8F002305E
:1028F000110561F48E2F9C9190959C932C813D81C4
:10290000A20FB31F88508830B0F70FC081E00115C7
:10291000110509F480E081959E2F8C932C813D81D7
:10292000A20FB31F98509830C0F7E770EE23E9F07C
:10293000F0E0E159F84FE4910130110539F048F029
:102940000230110591F48C91E82706C08C91E82B98
:1029500003C0E0958C91E823EC9307C00230110589
:1029600009F4B7CFAE0DBF1DBECFDF91CF911F9140
:102970000F91FF90EF90089590E0FC01E55AF84F19
:102980002491FC01E95BF84F3491FC01ED5CF84FB8
:10299000E491EE2309F43CC0222339F1233091F075
:1029A00038F42130A9F0223001F584B58F7D12C0B2
:1029B000273091F02830A1F02430B9F480918000C4
:1029C0008F7D03C0809180008F77809380000DC041
:1029D00084B58F7784BD09C08091B0008F7703C024
:1029E0008091B0008F7D8093B000F0E0EE0FFF1F6C
:1029F000E75DF84FA591B4919FB7F894611104C0B9
:102A00008C913095382302C0EC913E2B3C939FBFB4
:102A10000895CF93DF9390E0FC01E95BF84F249198
:102A2000FC01ED5CF84F8491882361F190E0880F00
:102A3000991FFC01E15EF84FC591D491FC01E75D5F
:102A4000F84FA591B491611109C09FB7F89488819E
:102A5000209582238883EC912E230BC0623061F491
:102A60009FB7F8948881322F309583238883EC9127
:102A70002E2B2C939FBF06C08FB7F894E8812E2B86
:102A800028838FBFDF91CF9108958F929F92AF924D
:102A9000BF92CF92DF92EF92FF926B017C010E9476
:102AA000EB0E4B015C01C114D104E104F104F1F01F
:102AB0000E94EB0EDC01CB0188199909AA09BB0918
:102AC000883E9340A105B10570F321E0C21AD108F8
:102AD000E108F10888EE880E83E0981EA11CB11C65
:102AE000C114D104E104F10419F7DDCFFF90EF9098
:102AF000DF90CF90BF90AF909F908F9008958EE21F
:102B000091E09093B3028093B2028091D1029091B0
:102B1000D202009711F00C94191B0895789484B593
:102B2000826084BD84B5816084BD85B5826085BDC9
:102B300085B5816085BD80916E00816080936E0057
:102B40001092810080918100826080938100809149
:102B500081008160809381008091800081608093FA
:102B600080008091B10084608093B1008091B000BA
:102B700081608093B00080917A00846080937A00B5
:102B800080917A00826080937A0080917A008160DF
:102B900080937A0080917A00806880937A00109206
:102BA000C100E0912502F091260282E08083E0914D
:102BB0002102F09122021082E0912302F09124027E
:102BC0008FEC808310922D02E0912902F0912A026D
:102BD00086E08083E0912702F09128028081806165
:102BE0008083E0912702F0912802808188608083B1
:102BF000E0912702F0912802808180688083E09133
:102C00002702F091280280818F7D808360E089E037
:102C10000E9409158091D1029091D202892B11F561
:102C20002091B8023091B902C901079697FD079625
:102C300013E0959587951A95E1F72091B6023091AA
:102C4000B702AC01429FC001439F900D529F900D6F
:102C500011240E94811A9093D2028093D102892B71
:102C600009F436C10E94B20F8091B8029091B90266
:102C70006091B6027091B702813291050CF479C26D
:102C8000AC014054510957FF02C04F5F5F4F55954B
:102C900047956255710977FF02C06F5F7F4F759549
:102CA0006795C0E4EC2EF12C02E510E02AE532E055
:102CB00082EB92E00E94D20F82E08093D402809156
:102CC000CF029091D002892B09F46CC28CE38093DF
:102CD000D3021092BE011092BD011092F201109227
:102CE00014021092F00181E08093EF011092CA016A
:102CF00061E082E10E94BC1461E083E10E94BC14A7
:102D00008091B9008E7F8093B9008091B9008D7F4A
:102D10008093B90088E48093B80085E48093BC0078
:102D200089E09AE09093BC018093BB018AE09AE02D
:102D30009093BA018093B9018091DA0287FD1EC099
:102D400061E00E94091561E08091DA020E94BC14E2
:102D500061E070E080E090E00E94451560E08091C5
:102D6000DA020E94BC146AE070E080E090E00E9409
:102D7000451561E08091DA020E94BC148091CF0277
:102D80009091D002892B09F4CCC22091E9023091B4
:102D9000EA024091EB025091EC0260E074E284EFB1
:102DA00090E00E94591ADA01C9014097A109B109BE
:102DB000B695A795979587958093B80064E086E7C8
:102DC00090E00E94B7106091B802615082EB92E0EF
:102DD0000E94270C64E082E790E00E94B710809187
:102DE000D402813009F4B4C264E182EB92E00E9423
:102DF000270C64E08EE690E00E94B7108FE8809385
:102E0000F1028091B6029091B7028038910509F0E5
:102E1000A3C28091B8029091B9028034910509F063
:102E2000ADC28091D402813009F494C28FEC8093BA
:102E3000F102C2E16AED82EB92E00E94270C6C2F56
:102E400082EB92E00E94270C61E882EB92E00E9404
:102E5000270C6091F10282EB92E00E94270C69ED51
:102E600082EB92E00E94270C8091D402813009F419
:102E700087C261EF82EB92E00E94270C66E088E651
:102E800090E00E94B7108091CF029091D002892BE0
:102E900009F478C22091ED023091EE024091EF02E8
:102EA0005091F00260E074E284EF90E00E94591AC1
:102EB000DA01C9014097A109B109B695A79597957F
:102EC00087958093B80081E08093C0010E94B20F83
:102ED0008091C00181110E94B20F8091BC0290913B
:102EE000BD02AC014052510957FF02C04F5F5F4F16
:102EF000559547956091BA027091BB02605871096F
:102F000077FF02C06F5F7F4F75956795F0E2EF2EF8
:102F1000F12C00E810E02FE135E082EB92E00E9416
:102F2000D20F8091CF029091D002892BD1F02091C5
:102F3000E9023091EA024091EB025091EC0260E02C
:102F400074E284EF90E00E94591ADA01C9014097B7
:102F5000A109B109B695A795979587958093B80073
:102F600016C08091CD029091CE02892B31F08091D4
:102F7000E7029091E8020E948A0CE091E102F09150
:102F8000E20290818091E60280958923808365E04A
:102F90008AE195E00E94B7106091B602615082EB21
:102FA00092E00E94270C2091B8023091B902C90129
:102FB000079697FD079633E0959587953A95E1F743
:102FC0002091B6023091B702829F8001839F100D3D
:102FD000929F100D1124C091D102D091D202809104
:102FE000CF029091D0020C0F1D1F009709F44CC026
:102FF0002091D30231E03093F1012093130210921B
:10300000F20110921402DC01ED91FC910190F0812B
:10301000E02D60E40995FF24F394EE24E39480917D
:10302000CF029091D0020C171D0759F1BFE1BF15D7
:10303000D0F40E945B108091D302E092F101809362
:1030400013021092F201109214028091CF0290911B
:10305000D002DC01ED91FC910190F081E02D60E463
:103060000995FF24F3948091CF029091D002699149
:10307000DC01ED91FC910190F081E02D0995F39434
:10308000CECF0E945B1041C0E091DF02F091E002E0
:1030900090818091E502892B80830C171D07A9F18F
:1030A00089912091CD023091CE02232B19F00E94FC
:1030B000200CF3CF28E030E040E8E091DB02F09113
:1030C000DC029091E302542F582319F05081952B84
:1030D00003C05081909595239083E091DD02F0919B
:1030E000DE0250819091E402952B9083E091DD0205
:1030F000F091DE0250819091E402909595239083A7
:10310000469521503109C9F6C8CF8091CF029091E0
:10311000D002892BD1F02091ED023091EE02409146
:10312000EF025091F00260E074E284EF90E00E94C0
:10313000591ADA01C9014097A109B109B695A795B5
:10314000979587958093B80011C0E091E102F091C6
:10315000E20290818091E602892B80838091CD02EA
:103160009091CE02892B11F00E941F0C0E947806CC
:10317000FDCFAC014052510957FF02C04F5F5F4F76
:10318000559547956357710977FF02C06F5F7F4F71
:1031900075956795F0E2EF2EF12C03E710E02AE732
:1031A00030E086CD61E08091D8020E94091561E08F
:1031B0008091D9020E9409158091D802082E000C36
:1031C000990BFC01ED5CF84FE491F0E0EE0FFF1F6E
:1031D000E75DF84F259134913093E0022093DF02B0
:1031E000FC01E95BF84FE491E093E5028091D9029C
:1031F000082E000C990BFC01ED5CF84FE491F0E017
:10320000EE0FFF1FE75DF84FA591B491B093E20276
:10321000A093E102FC01E95BF84FE491E093E60240
:103220008C91E82BEC938091CD029091CE02892B6A
:1032300009F434C0CFB7F8948091BF01811127C041
:10324000EDE3F7E08491E1E5F7E09491E82FF0E019
:10325000EE0FFF1FE15EF84FA591B491EC91E923C9
:1032600021F461E08AE00E94BC1461E08AE00E94DF
:1032700009158CB580618CBD8CB580648CBD61E016
:103280008DE00E94091561E08BE00E940915809194
:10329000BF018F5F8093BF01CFBF4ECD61E08091B2
:1032A000D6020E94091561E08091D7020E9409159B
:1032B0008091D602082E000C990BFC01ED5CF84FB2
:1032C000E491F0E0EE0FFF1FE75DF84F2591349198
:1032D0003093DC022093DB02FC01E95BF84FE491C0
:1032E000E093E3028091D702082E000C990BFC01B9
:1032F000ED5CF84FE491F0E0EE0FFF1FE75DF84F53
:10330000A591B491B093DE02A093DD02FC01E95BCC
:10331000F84FE491E093E4028C91E095E823EC937C
:103320000BCD8091CD029091CE02892B31F080910E
:10333000E7029091E8020E948A0CE091E102F0918C
:10334000E20290818091E60280958923808336CDC8
:1033500060E14BCD8FE96BCD8036910579F480919A
:10336000B8029091B902409749F48091D40281301B
:1033700011F08FEA01C080E18093F102C2E05ACDE2
:1033800062E278CDE091E102F091E20290818091D9
:10339000E602892B80838091CD029091CE02892B09
:1033A00009F491CD0E941F0C8ECDE5E1F2E013826D
:1033B000128248EE53E060E070E0448355836683F8
:1033C00077838AE091E09183808385EC90E0958714
:1033D000848784EC90E09787868780EC90E0918BDF
:1033E000808B81EC90E0938B828B82EC90E0958BCC
:1033F000848B86EC90E0978B868B118E128E138EC9
:10340000148EA2EFB2E013961C921E92129714969D
:103410004D935D936D937C9317978CE191E011969A
:103420009C938E93E2EBF2E01382128220E830E06C
:103430003583248380E290E09783868331872087D9
:1034400093878287168A158614861786168681E0EA
:10345000858B848B2FEF3FEF338B228B318B208B2F
:10346000878B108E128E118E8EE291E09183808375
:10347000148E138EB68FA58F10A2178E8FEF84A394
:1034800085A386A387A384E080A780E585AB16AAE1
:1034900080E89AE1A6E0B0E087AB90AFA1AFB2AF11
:1034A00080EA96E8A1E0B0E083AF94AFA5AFB6AFF5
:1034B0000895A1E21A2EAA1BBB1BFD010DC0AA1F75
:1034C000BB1FEE1FFF1FA217B307E407F50720F08D
:1034D000A21BB30BE40BF50B661F771F881F991F08
:1034E0001A9469F760957095809590959B01AC0151
:1034F000BD01CF010895EE0FFF1F0590F491E02D5F
:1035000009940F931F93CF93DF938230910510F4AA
:1035100082E090E0E0910003F091010320E030E0D0
:10352000A0E0B0E0309719F1408151810281138110
:1035300048175907C8F08417950769F4109731F0B8
:1035400012960C93129713961C9327C000930003B6
:103550001093010322C02115310519F042175307BA
:1035600018F49A01BD01EF01DF01F801DBCF21154D
:103570003105F9F0281B390B2430310580F48A819C
:103580009B816115710521F0FB019383828304C047
:103590009093010380930003FE01329644C0FE0124
:1035A000E20FF31F819391932250310939832883CD
:1035B0003AC02091FE023091FF02232B41F420916A
:1035C0000201309103013093FF022093FE0220910B
:1035D0000001309101012115310541F42DB73EB7AD
:1035E0004091040150910501241B350BE091FE022E
:1035F000F091FF02E217F307A0F42E1B3F0B2817F0
:10360000390778F0AC014E5F5F4F2417350748F05B
:103610004E0F5F1F5093FF024093FE0281939193E0
:1036200002C0E0E0F0E0CF01DF91CF911F910F9158
:103630000895CF93DF93009709F481C0FC0132977E
:1036400013821282A0910003B0910103109781F4BC
:1036500020813181820F931F2091FE023091FF0261
:103660002817390751F5F093FF02E093FE0267C077
:10367000ED0120E030E0CE17DF0740F44A815B81A6
:103680009E0141155105F1F0EA01F5CFD383C283C4
:1036900040815181840F951FC817D90759F488813B
:1036A0009981840F951F0296918380838A819B81E3
:1036B000938382832115310529F4F0930103E0936C
:1036C00000033DC0E901FB83EA8349915991C40F8E
:1036D000D51FEC17FD0761F480819181840F951F40
:1036E0000296E90199838883828193819B838A83EF
:1036F000E0E0F0E012968D919C911397009719F0FD
:10370000FD01DC01F7CF8D919C9111979D012E5FFA
:103710003F4F820F931F2091FE023091FF02281726
:10372000390769F4309729F41092010310920003CD
:1037300002C013821282B093FF02A093FE02DF91B7
:10374000CF91089581E090E0F8940C94AE1BDC01D9
:1037500001C06D9341505040E0F7089516E0C1E478
:10376000D6E004C0FE010E947B1A2196C234D10724
:06377000C9F7F894FFCF39
:10377600000002038000000000007C0E150E3F0EC4
:10378600C90E6C064E0E620E00000000630A360A71
:10379600930AF5082E0A1A0A0B0A00000000250BE8
:1037A600150E930A920A8206F5081E09F6081209F2
:1037B60006092509F50840078D0C960ADA0A3E081F
:0637C6002108B4075507BD
:107E0000112484B714BE81FFF0D085E080938100F7
:107E100082E08093C00088E18093C10086E0809377
:107E2000C20080E18093C4008EE0C9D0259A86E02C
:107E300020E33CEF91E0309385002093840096BBD3
:107E4000B09BFECF1D9AA8958150A9F7CC24DD24C4
:107E500088248394B5E0AB2EA1E19A2EF3E0BF2EE7
:107E6000A2D0813461F49FD0082FAFD0023811F036
:107E7000013811F484E001C083E08DD089C08234E0
:107E800011F484E103C0853419F485E0A6D080C0E4
:107E9000853579F488D0E82EFF2485D0082F10E0AE
:107EA000102F00270E291F29000F111F8ED06801E7
:107EB0006FC0863521F484E090D080E0DECF843638
:107EC00009F040C070D06FD0082F6DD080E0C81688
:107ED00080E7D80618F4F601B7BEE895C0E0D1E017
:107EE00062D089930C17E1F7F0E0CF16F0E7DF06D8
:107EF00018F0F601B7BEE89568D007B600FCFDCFD4
:107F0000A601A0E0B1E02C9130E011968C91119780
:107F100090E0982F8827822B932B1296FA010C0160
:107F200087BEE89511244E5F5F4FF1E0A038BF0790
:107F300051F7F601A7BEE89507B600FCFDCF97BE46
:107F4000E89526C08437B1F42ED02DD0F82E2BD052
:107F50003CD0F601EF2C8F010F5F1F4F84911BD097
:107F6000EA94F801C1F70894C11CD11CFA94CF0C13
:107F7000D11C0EC0853739F428D08EE10CD085E9AC
:107F80000AD08FE07ACF813511F488E018D01DD067
:107F900080E101D065CF982F8091C00085FFFCCF94
:107FA0009093C60008958091C00087FFFCCF809118
:107FB000C00084FD01C0A8958091C6000895E0E648
:107FC000F0E098E1908380830895EDDF803219F02E
:107FD00088E0F5DFFFCF84E1DECF1F93182FE3DFCA
:107FE0001150E9F7F2DF1F91089580E0E8DFEE27F6
:047FF000FF270994CA
:027FFE00040479
:0400000300007E007B
:00000001FF
